:020000040000FA
:060000000A128A110C280F
:10000800FE00030EF1000A08F2000A128A11AC2958
:100018000A128A110F28F901FA0183010A128A11BA
:1000280015280A128A1146220A128A11831203130A
:100038000808AC00AD012C08A4002D08A5000A1280
:100048008A1199220A128A11831203132508AF0014
:100058002408AE000808AC00AD012C08A4002D0847
:10006800A5000A128A11FE210A128A1183120313AB
:100078002508B1002408B0000808AC00AD012C0820
:10008800A4002D08A5000A128A11EC200A128A1170
:10009800831203132508B3002408B2002F08F400C4
:1000A8002E08F3000A128A114F210A128A117408C5
:1000B80083120313B9007308B8003108F40030083C
:1000C800F3000A128A114F210A128A117408831246
:1000D8000313B7007308B6003308F4003208F300BE
:1000E8000A128A114F210A128A1174088312031303
:1000F800B5007308B4001A280A128A110C28831252
:100108000313A101F41F89288A289128F309F40907
:10011800F30A0319F40AA101A10AF61F94289528E5
:100128009E28F509F609F50A0319F60A0130F700C1
:100138007708A106A201A301730874040319A5286E
:10014800A628DD28A001A00AB42801300310F30D69
:10015800F40DFF3E031DAA280130F7007708A00719
:10016800F41FB728B828A92801300310A20DA30D41
:10017800FF3E031DB92874087602031DC5287308BD
:100188007502031CC828C928D0287308F50274080A
:10019800031CF603F602221401300310F40CF30CCE
:1001A800FF3E031DD1280130A002031DDC28DD28F5
:1001B800B82821080319E128E228E728A209A30999
:1001C800A20A0319A30A2308F4002208F30008006E
:1001D8006430F3000030F400831203132508F6009E
:1001E8002408F5000A128A1183200A128A11740859
:1001F80083120313A9007308A8002908F40028082B
:10020800F3006430F5000030F6000A128A117422F7
:100218000A128A11740883120313A9007308A8002C
:1002280028082402A4002908031C290A2502A5007D
:100238000A30F3000030F4002508F6002408F50021
:100248000A128A1183200A128A117408831203136E
:10025800AB007308AA002B08F4002A08F3000A3040
:10026800F5000030F6000A128A1174220A128A1167
:10027800740883120313AB007308AA002A08240227
:10028800A6002B08031C2B0A2502A7002708A50097
:100298002608A400080082293F30F5000030F60047
:1002A800A7290630F5000030F600A7295B30F500D5
:1002B8000030F600A7294F30F5000030F600A729D6
:1002C8006630F5000030F600A7296D30F5000030E3
:1002D800F600A7297D30F5000030F600A729073081
:1002E800F5000030F600A7297F30F5000030F60051
:1002F800A7296730F5000030F600A7297408003AEE
:1003080003198729A7297308003A03195029013AC4
:1003180003195529033A03195A29013A03195F2980
:10032800073A03196429013A03196929033A031999
:100338006E29013A031973290F3A03197829013AEA
:1003480003197D29A7297608F4007508F300080029
:100358000B1CAF29B029C129831203130618B5292C
:10036800B629BA290130F000700888078618BD2917
:10037800BE29C029013088020B100B1DC429C529CC
:10038800F729B2308312031381000B118901790810
:100398007A04031DD029D129DA29380887000130C9
:1003A80089000130F9000030FA00F72979037A044E
:1003B800031DDF29E029E929360887000230890072
:1003C8000230F9000030FA00F729023079067A0481
:1003D800031DEF29F029F729340887000430890024
:1003E800F901FA01F72972088A00710E8300FE0EDE
:1003F8007E0E09006430F3000030F400831203130A
:100408002508F6002408F5000A128A1183200A122A
:100418008A11740883120313A9007308A800290815
:10042800F4002808F3006430F5000030F6000A12E2
:100438008A1174220A128A11740883120313A900FC
:100448007308A80028082402A4002908031C290A04
:100458002502A5000A30F3000030F4002508F60054
:100468002408F5000A128A1183200A128A117408D6
:1004780083120313A7007308A6002708A5002608FF
:10048800A400080083160317880189018316031343
:100498008501FF30860087018801890183120313D3
:1004A8008501870188018901831603130F178F16A9
:1004B8000F120F1481128111011581100114B2302D
:1004C8008312031381000B118B168B150B108B17DE
:1004D8008316031381131514951416149614080023
:1004E800F701F801731C792A7A2A802A7508F70718
:1004F8000318F80A7608F80701300310F50DF60D11
:10050800FF3E031D812A01300310F40CF30CFF3E5B
:10051800031D882A73087404031D932A942A762AD3
:100528007808F4007708F30008006430F30000301E
:10053800F400831203132508F6002408F5000A12B4
:100548008A1183200A128A11740883120313A700E0
:0E0558007308A6002708A5002608A4000800C6
:04400E00D530FF3F6B
:00000001FF
