:060000000A128A11152905
:10000800F000030EF1000B1811200C184A200B19F0
:100018007420710E830070080900061CA30A0430BE
:100028002302031825280330230203183828023036
:10003800230203183E2801302302031844280B101A
:100048000800861C2B28061DA30A0B1008002D0883
:10005800A9002C08A8002B08A700A301A401A5014A
:10006800A6010B1045140800861CAD0A061DAD0339
:100078000B100800861CAC0A061DAC030B10080008
:10008800861CAB0A061DAB030B1008000313831272
:1000980085308F00EE308E000C10A003A103A20360
:1000A800C5185828C5145928C5103B186028BB180E
:1000B80068283B196E280800081D662808110510D5
:1000C8008510080008150800881E6C28881208008A
:1000D80088160800861F72288613080086170800ED
:1000E80003138312FE3081000B118501441C8A28FA
:1000F800C41C9028441D9528C41D9A28441E9F2876
:10010800C41EA428441FA928C41FAE28C40144142F
:100118003C08870085140800C4143D0887000514AE
:10012800080044153E08870085150800C4153F08D7
:100138008700051508004416400887008516080042
:10014800C4164108870005160800441742088700AE
:0E01580085170800C417430887000517080024
:100200008A010A140F3982073F3406345B344F34B5
:1002100066346D347D3407347F34673477347C340E
:1002200039345E3479347134080003178316880139
:1002300089010313831685017F30860087018801B9
:100240008901811315149514151503138312850163
:10025000870188018901A401A501A601A301AA01C2
:10026000BA01BB010A30AB000A30AC000A30AD0065
:100270000A30A7000A30A8000A30A900F121F821AD
:1002800005221D2213224518CF2204302302031910
:100290002622033023020319A0220230230203196D
:1002A000A622013023020319AC2223080319B2222B
:1002B000241C2A22200803193422200803193D2275
:1002C000200803199422E122A61C4A2221080319BE
:1002D0006022210803196A22210803199822EE22BC
:1002E000261D7322220803198A222208031981225B
:1002F000220803199C22FB222008AF002108B0002D
:100300002208B100B2010A302E020318B20A031803
:10031000AE0003188329B5010A302F020318B50A6D
:100320000318AF0003188C29B7010A3030020318F4
:10033000B70A0318B00003189529B9010A30310231
:100340000318B90A0318B10003189E29B30101303C
:100350002E020318B30A0318AE000318A729B4012C
:1003600001302F020318B40A0318AF000318B02994
:10037000B601013030020318B60A0318B0000318A2
:10038000B929B801013031020318B80A0318B100C5
:100390000318C229B62215302B0203190A3003199B
:1003A000AB0009302B02031914300319AB001530D0
:1003B0002C0203190A300319AC0009302C0203196E
:1003C00014300319AC0015302D0203190A3003193B
:1003D000AD0009302D02031914300319AD000823B4
:1003E0004329031383160F178F120F120F140800DF
:1003F0000313831681128111011581140114031353
:100400008312FE3081000B110800031383121014B5
:100410009010901610160313831285308F00EE3063
:100420008E000C100800031383161614961416156C
:100430000313831206080B1008008B178B150B1083
:100440008B160B110B170C140C10080009148914CF
:1004500009150800241808002708A00024143A14DD
:100460000815081088100800251808000330A00798
:1004700025148814081008110800261808002808F8
:10048000A0072908A0070630A00726140814881022
:1004900008110800A61808002A18552A2708A100E4
:1004A0000330A107A6142A145C2AA6142708A10069
:1004B0002908A1070630A10788150812881208002C
:1004C000A41808002808A107A414BA1488168811D3
:1004D00008120800A51808000330A107A514081683
:1004E00088118812080026190800A2012708A2070F
:1004F0002808A2070630A2072615081788138613B6
:100500000800251908000330A207251588170813CD
:1005100086130800241908002908A20724153A1593
:1005200086170813881308002410251026100800C9
:10053000A410A510A61008002411251126110800EA
:100540002D08AE0009150910891008002C08AE000E
:1005500089140911091008002B08AE0009140911AB
:1005600089100800091009118910080032080021BB
:10057000BC0033080021BD0035080021BE0034084E
:100580000021BF0037080021C00036080021C1004B
:1005900039080021C20038080021C300080040309B
:1005A000BE00BF00C000C100C200C300081488150F
:1005B0000817C518CF2A45102A102A224A2273226A
:1005C00043293A1C08000330200203193B14013070
:1005D000200203193B1003193A100800BA1C080046
:1005E000033021020319BB14013021020319BB108F
:1005F0000319BA1008003A1D08000330220203193B
:100600003B150130220203193B1103193A1108006E
:0A061000053023020318A3010800BF
:04400E00C430FF3F7C
:00000001FF
