:020000040000FA
:060000000A128A110C280F
:10000800FE00030EF2000A08F3000A128A11922871
:100018000A128A110F28F801F90183120313B40197
:10002800B501B601B701B801B901BA01BB01830135
:100038000A128A111F280A128A116D220A128A11BD
:10004800831203139F1829282A2824282030831272
:100058000313AD00AD0B2E280000831203139F1469
:100068003508A6003408A5000A128A11DB220A12F4
:100078008A11831203132608AF002508AE0035083D
:10008800A6003408A5000A128A1125220A128A112C
:10009800831203132608B1002508B0003508A6000E
:1000A8003408A5000A128A1165210A128A118312DE
:1000B80003132608B3002508B2002F08F5002E0800
:1000C800F4000A128A11C8210A128A1175088312CB
:1000D8000313BB007408BA003108F5003008F400B7
:1000E8000A128A11C8210A128A1175088312031389
:1000F800B9007408B8003308F5003208F4000A1291
:100108008A11C8210A128A11750883120313B700CD
:100118007408B60024280A128A110C2883120313C3
:100128000C1F97289828BF280C131F0CF000700C80
:100138000F39003A031DA128A228A9281E08880003
:100148001F08C33904389F00BB281F0CF000700C2F
:100158000F39013A031DB128B228BB281E08F00048
:10016800F1017008B4007108B500C3309F05213053
:10017800F000F00BBD280B1DC228C328F528B230AB
:100188008312031381000B11890178087904031D78
:10019800CE28CF28D8283A088700013089000130B6
:1001A800F8000030F900F52878037904031DDD28EC
:1001B800DE28E72838088700023089000230F80076
:1001C8000030F900F528023078067904031DED287F
:1001D800EE28F5283608870004308900F801F9016F
:1001E800F52873088A00720E8300FE0E7E0E090041
:1001F80083120313A201F51F022903290A29F4090E
:10020800F509F40A0319F50AA201A20AF71F0D2934
:100218000E291729F609F709F60A0319F70A013012
:10022800A0002008A206A301A401740875040319FC
:100238001E291F295629A101A10A2D2901300310C1
:10024800F40DF50DFF3E031D23290130A000200801
:10025800A107F51F30293129222901300310A30DE8
:10026800A40DFF3E031D322975087702031D3E29A0
:1002780074087602031C4129422949297408F602A8
:100288007508031CF703F702231401300310F50C5B
:10029800F40CFF3E031D4A290130A102031D552914
:1002A80056293129220803195A295B296029A309EB
:1002B800A409A30A0319A40A2408F5002308F400D2
:1002C80008006430F4000030F50083120313260898
:1002D800F7002508F6000A128A11FC200A128A1172
:1002E800750883120313AA007408A9002A08F500E8
:1002F8002908F4006430F6000030F7000A128A1169
:10030800B0220A128A11750883120313AA0074080E
:10031800A90029082502A5002A08031C2A0A260282
:10032800A6000A30F4000030F5002608F70025087A
:10033800F6000A128A11FC200A128A117508831223
:100348000313AC007408AB002C08F5002B08F4006C
:100358000A30F6000030F7000A128A11B0220A1299
:100368008A11750883120313AC007408AB002B08BC
:100378002502A7002C08031C2C0A2602A80028081E
:10038800A6002708A5000800FB293F30F60000302A
:10039800F700202A0630F6000030F700202A5B30EC
:1003A800F6000030F700202A4F30F6000030F70042
:1003B800202A6630F6000030F700202A6D30F6005B
:1003C8000030F700202A7D30F6000030F700202AA0
:1003D8000730F6000030F700202A7F30F6000030A2
:1003E800F700202A6730F6000030F700202A750849
:1003F800003A0319002A202A7408003A0319C92967
:10040800013A0319CE29033A0319D329013A0319EA
:10041800D829073A0319DD29013A0319E229033AD1
:100428000319E729013A0319EC290F3A0319F129AD
:10043800013A0319F629202A7708F5007608F4000E
:1004480008006430F4000030F50083120313260816
:10045800F7002508F6000A128A11FC200A128A11F0
:10046800750883120313AA007408A9002A08F50066
:100478002908F4006430F6000030F7000A128A11E7
:10048800B0220A128A11750883120313AA0074088D
:10049800A90029082502A5002A08031C2A0A260201
:1004A800A6000A30F4000030F5002608F7002508F9
:1004B800F6000A128A11FC200A128A1175088312A2
:1004C8000313A8007408A7002808A6002708A50099
:1004D8000800033083160317880089010330831648
:1004E800031385008601870188018901831203139C
:1004F800870188018901831603130F178F160F16BA
:100508000F1481128111011581100114B230831268
:10051800031381000B118B160B17831603130C178B
:10052800831203130C138B171F14831603139F13C3
:10053800831203139F14831603131F129F12C330D1
:10054800831203139F051F083F3940389F0021304D
:10055800F400F40BAD2A080083120313A001A101D3
:10056800741CB72AB82AC02A760883120313A00776
:100578000318A10A7708A10701300310F60DF70D3B
:10058800FF3E031DC12A01300310F50CF40CFF3E99
:10059800031DC82A74087504031DD32AD42AB42A53
:1005A800831203132108F5002008F40008006430C2
:1005B800F4000030F500831203132608F70025081D
:1005C800F6000A128A11FC200A128A117508831291
:1005D8000313A8007408A7002808A6002708A50088
:0205E800080009
:04400E00D530FF3F6B
:00000001FF
