:060000000A128A11152905
:10000800F000030EF1000C1826200B1911208C1893
:100018003520710E83007008090003138312F7302E
:1000280081000B118801281C1B28A81C2128A80165
:1000380028142608870008140800A8142708870031
:1000480088140800031383120C308F0026308E00AA
:100058000C10A10A2108023C031D0800A101A00AF6
:1000680008000313831291018C10A30A2308053C8E
:10007800031D0800A30109184328091408000910E2
:0200880008006E
:100200008A010A140F3982073F3406345B344F34B5
:1002100066346D347D3407347F34673477347C340E
:1002200039345E3479347134080003178316880139
:100230008901A001031383168501870188018901C3
:1002400003138312850187018801890134213B2131
:10025000482156216821091C91212008A200712102
:10026000782182218C212B29031383160F178F16D7
:100270000F120F1408000313831681128111011548
:100280008114011403138312F73081000B1108004D
:100290000313831210149010901610160313831278
:1002A0000C308F0026308E000C10080003138312D0
:1002B0001215921412141217921612169215031395
:1002C0008316C43092000313831291018C1008002E
:1002D0008B178B160B110B170C140C108C148C1025
:1002E000080025080021A60024080021A700080016
:1002F000A5010A3022020318A50A0318A200031858
:1003000079290800A401013022020318A40A031865
:10031000A200031883290800643020020318A001FA
:060320000800870108003F
:04400E00C430FF3F7C
:00000001FF
