:060000000A128A11152905
:10000800F000030EF1000B1839200B190F20710EA8
:1000180083007008090003138312D93081000B1183
:100028008801291C1F28A91C2528291D2A28A91D43
:100038002F28291E3428A901291424088700081408
:100048000800A9142508870088140800291526081F
:10005800870008150800A9152708870088150800D3
:100068002916280887000816080003138312861C1F
:0A0078008503061C850A0B10080022
:100200008A010A140F3982073F3406345B344F34B5
:1002100066346D347D3407347F34673477347C340E
:1002200039345E3479347134080003178316880139
:100230008901A101AA01031383168501FF308600FD
:100240008701880181131514951403138312850106
:100250008701880136213D214A2150215921602101
:100260000508AA0070217A2184212E290313831600
:100270000F178F160F120F14080003138316811225
:10028000811101158114011403138312D9308100E7
:100290000B1108008B178B160B118B150B10080018
:1002A00003138316161496140313831206080B10F7
:1002B000080005080F39A200050E0F39A300080039
:1002C00022080021A40023080021A5002B080021FA
:1002D000A6002C080021A7002D080021A800080076
:1002E000AB0164302A020318AB0A0318AA000318F2
:1002F00071290800AC010A302A020318AC0A03185D
:10030000AA0003187B290800AD0101302A02031856
:0C031000AD0A0318AA0003188529080094
:04400E00C430FF3F7C
:00000001FF
