:020000040000FA
:060000000A128A110C280F
:10000800FE00030EF2000A08F3000A128A111528EE
:100018000A128A110F28F601F70183010A128A11C0
:10002800E128831203130C1F1A281B287D280C13A0
:100038001F0CF000700C0F39003A031D24282528E6
:100048004E281E08F0000310700C803E95001E0814
:100058000139F000F00EF00D17087006DF39700650
:100068009700831603131E08F00007300310F00CE6
:10007800FF3E031D3A287008F100F10E83120313A6
:1000880017087106EF39710697001F08C33904383D
:100098009F007D281F0CF000700C0F39013A031DDA
:1000A800562857287D281E08F0000310700C803E43
:1000B8009B001E080139F000F00EF00D1D087006B7
:1000C800DF3970069D00831603131E08F000073001
:1000D8000310F00CFF3E031D6C287008F100F10EB0
:1000E800831203131D087106EF3971069D00C33092
:1000F8009F0573088A00720E8300FE0E7E0E0900AB
:10010800033083160317880089010330831603130D
:1001180085008601870188018901831203138701FD
:1001280088018901831603130F178F160F160F14F2
:100138000B170C17831203130C138B178316031357
:1001480007158714F93092003F308312031397057F
:100158001708F0390C3897000F309500CF30970505
:100168000F309D040F309B001D129D128C10033020
:10017800920412158C1CC128C228BE288C10831624
:10018800031307118710831203131F148316031315
:100198009F13831203139F14831603131F129F12B6
:1001A800C330831203139F051F083F3940389F004F
:1001B8002130F400F40BDE2808000A128A1184208A
:1001C8000A128A11831203139F18EB28EC28E628D9
:1001D8002130F500F50BEE28831203139F14E6284F
:0601E8000A128A110C2826
:04400E00D530FF3F6B
:00000001FF
