:020000040000FA
:060000000A128A110C280F
:10000800FE00030EF2000A08F3000A128A112929D9
:100018000A128A110F28F601F701F801F901831372
:100028002030840030300A128A119D230A128A1166
:1000380083010A128A1120280A128A1101220A123F
:100048008A11831203139F182A282B28832820300B
:1000580083120313B200B20B2F280000831203137C
:100068009F141F0CB200320C0F39003A031D3D28B3
:100078003E285B28563079020318432844284A282A
:100088000A128A1140230A128A115B28AB307902BE
:1000980003184F28502856280A128A11BD220A121E
:1000A8008A115B280A128A11E9220A128A1183121C
:1000B80003131F0CB200320C0F39013A031D6528D7
:1000C800662883285630780203186B286C28722813
:1000D8000A128A1115230A128A118328AB30780272
:1000E8000318772878287E280A128A1165220A12AE
:1000F8008A1183280A128A1191220A128A11103051
:100108000A128A1188230A128A1183120313B20071
:100118003208AD0011300A128A1188230A128A1196
:1001280083120313B2003208AC0012300A128A118B
:1001380088230A128A1183120313B2003208AB0013
:1001480013300A128A1188230A128A1183120313A0
:10015800B2003208AA0014300A128A1188230A123F
:100168008A1183120313B2003208A90015300A124B
:100178008A1188230A128A1183120313B2003208E3
:10018800A8002D088800061CCA28CB281729220891
:100198002304031DD028D12817291030B2003208B3
:1001A800F40079080A128A116B230A128A11113095
:1001B80083120313B2003208F40078080A128A1175
:1001C8006B230A128A11123083120313B200320809
:1001D800F40077080A128A116B230A128A11133065
:1001E80083120313B2003208F4002F080A128A118E
:1001F8006B230A128A11143083120313B2003208D7
:10020800F40076080A128A116B230A128A11153033
:1002180083120313B2003208F4002E080A128A115E
:100228006B230A128A11031083120313061803148E
:10023800003003180130B200B3013208A2003308BD
:10024800A30025280A128A110C28831203130C1FF5
:100258002E292F29FA290C131F0CF000700C0F39C6
:10026800003A031D382939294D2920082104031D86
:100278003E293F2944291E08F0007008F900482942
:100288002D08F0007008F9001F08C33904389F00D2
:10029800FA291F0CF000700C0F39013A031D55297B
:1002A80056296A2920082104031D5B295C29612934
:1002B8001E08F0007008F80065292C08F000700886
:1002C800F8001F08C33908389F00FA291F0CF000EE
:1002D800700C0F39023A031D72297329B3292008BB
:1002E8002104031D7829792986291E08F000700841
:1002F800F700831603131E08F00070088312031317
:10030800AF008E292B08F0007008F7002A08F000CB
:100318007008AF007708F0000310700C803E95005D
:1003280077080139F000F00EF00D17087006DF3974
:10033800700697002F08F00007300310F00CFF3EFE
:10034800031DA1297008F100F10E17087106EF3995
:10035800710697001F08C3390C389F00FA291F0C33
:10036800F000700C0F39033A031DBB29BC29FA2988
:1003780020082104031DC129C229CF291E08F00025
:100388007008F600831603131E08F0007008831225
:100398000313AE00D7292908F0007008F6002808D2
:1003A800F0007008AE007608F0000310700C803E74
:1003B8009B0076080139F000F00EF00D1D0870065C
:1003C800DF3970069D002E08F00007300310F00C8E
:1003D800FF3E031DEA297008F100F10E1D087106A1
:1003E800EF3971069D00C3309F05FA2973088A000A
:1003F800720E8300FE0E7E0E09000F30831603175F
:10040800880089010F3083160313850003308600A6
:1004180087018801890183120313860187018801F6
:100428008901831603138113033095000F178F1664
:100438000F160F140B170C17831203130C138B17BB
:100448008B150B108316031307158714F9309200C8
:100458003F308312031397051708F0390C389700BB
:100468000F309500CF3097050F309D040F309B005B
:100478001D129D128C100330920412158C1C452AF3
:10048800462A422A8C1083160313071187108312F9
:1004980003131F14831603139F13831203139F144C
:1004A800831603131F129F12C330831203139F0571
:1004B8001F083F3940389F002130F400F40B622AAE
:1004C800080083120313B001B10187150430F50049
:1004D800E430F400F40B6E2AF50B6E2A0000831248
:1004E800031387113130F5000B30F400F40B7A2A2E
:1004F800F50B7A2A7F2A013083120313B0070318F9
:10050800B10A0030B107003031020A300319300255
:10051800031C8F2A902A692A080083120313B0014A
:10052800B10187150630F500B530F400F40B9A2AAE
:10053800F50B9A2A9F2A8312031387112F30F5008F
:100548003A30F400F40BA62AF50BA62A0000013075
:1005580083120313B0070318B10A0030B107003043
:1005680031020A3003193002031CBB2ABC2A952A1F
:10057800080083120313B001B10107140430F50019
:10058800E430F400F40BC62AF50BC62A00008312E7
:10059800031307103130F5000B30F400F40BD22AA6
:1005A800F50BD22AD72A013083120313B007031898
:1005B800B10A0030B107003031020A3003193002A5
:1005C800031CE72AE82AC12A080083120313B00192
:1005D800B10107140630F500B530F400F40BF22A27
:1005E800F50BF22AF72A8312031307102F30F500B0
:1005F8003A30F400F40BFE2AF50BFE2A0000013015
:1006080083120313B0070318B10A0030B107003092
:1006180031020A3003193002031C132B142BED2A64
:10062800080083120313B001B1018715E430F40008
:100638001D2B1E2BF40B1C2B212B000083120313E4
:1006480087113230F500DD30F400F40B292BF50B5F
:10065800292B2E2B013083120313B0070318B10A7C
:100668000030B107003031020A3003193002031C90
:100678003E2B3F2B192B080083120313B001B10145
:100688000714E430F400482B492BF40B472B4C2B70
:1006980000008312031307103230F500DD30F40038
:1006A800F40B542BF50B542B592B013083120313E5
:1006B800B0070318B10A0030B107003031020A3020
:1006C80003193002031C692B6A2B442B0800F50020
:1006D8007408831203178D0075088C00831603179E
:1006E8008C130C158B1355308D00AA308D008C148B
:1006F800831203130D1E812B822B7C2B0D12831664
:1007080003170C118B17080083120313B00030086D
:10071800831203178D00831603178C130C1483128E
:1007280003170C08F400740883120313B10031088E
:10073800080064008001840A0406031900340406D2
:020748009E2BE6
:04400E00D530FF3F6B
:00000001FF
