:060000000A128A11152905
:10000800F000030EF1000B181B200B1903138312C9
:100018003D3081000B11A00A2008143C031D16284E
:10002800A001A10A710E8300F00E700E09000313DF
:0E0038008312861C850A061C85030B10080027
:100200008A010A140F3982073F3406345B344F34B5
:1002100066346D347D3407347F34673477347C340E
:1002200039345E3479347134080003178316880139
:100230008901A101031383168501FF308600870120
:100240008801811315149514031383128501870106
:1002500088013221392146214F21552121080021D1
:1002600088002D29031383160F178F160F120F14F2
:1002700008000313831681128111011581140114E2
:10028000031383123D3081000B1108000313831602
:10029000161496140313831206080B1008008B170C
:1002A0008B150B108B160B11080005080021870019
:0202B000080044
:04400E00C430FF3F7C
:00000001FF
