:020000040000FA
:060000000A128A110C280F
:10000800FE00030EF1000A08F2000A128A11592AAA
:100018000A128A110F288317D830FD000030FE001D
:10002800E930FF00903084000A128A1175220A1202
:100038008A118313E030FD000130FE003130FF00EB
:10004800A03084000A128A1175220A128A115030CF
:10005800FD000130FE00DF30FF00203084000A126E
:100068008A1175220A128A11DB01F801F901FA01D5
:1000780083010A128A113D2A8312031320032104E3
:10008800031D472848287D28C430F4000030F500B7
:100098000A128A1171210A128A110D308312031370
:1000A8009900A030F4000030F5000A128A1171217D
:1000B8000A128A110D308312031399002230F400BA
:1000C8000030F5000A128A1171210A128A110D30C6
:1000D8008312031399003530F4000030F5000A123A
:1000E8008A1171210A128A1183120313A001A10136
:1000F800DB0131307A06031D8228832889280A12F9
:100108008A11AE210A128A11E82832307A06031DB4
:100118008E288F28BD288501F901F90A0C3099002D
:10012800823083120313D700DD30D600D60B9A280D
:10013800D70B9A28B430F4000130F5000A128A115E
:1001480071210A128A11AE28831203131A08850036
:10015800DB01DB0A79030319B228B328A828FA01BE
:10016800013083120313A0000030A1000C30990065
:10017800E82833307A06031DC228C328E8288601F8
:10018800F801F80A0C309900823083120313D70063
:10019800DD30D600D60BCE28D70BCE289030F40011
:1001A8000130F5000A128A1171210A128A11E22817
:1001B800831203131A088600DB01DB0A780303198C
:1001C800E628E728DC28B328080050347234653460
:1001D800733469346F346E346534203475346E3456
:1001E800613420347434653463346C3461342034BD
:1001F8007034613472346134203465346C342034A2
:10020800703475346534723474346F342034423445
:100218000034503472346534733469346F346E3456
:100228006534203475346E34613420347434653464
:1002380063346C3461342034703461347234613422
:10024800203465346C342034703475346534723439
:1002580074346F342034413400345B3431345D34C9
:10026800203444346534733470346C346534673402
:1002780061347234203463346134643465346E34E8
:100288006134203464346534203463346134723426
:100298006534633474346534723465347334733458
:1002A8000034513475346534203461346334633434
:1002B80069346F346E34203464346534733465348F
:1002C8006134203465346A34653463347534743485
:1002D800613472343F343F340034F601F701932916
:1002E80076087407D1007508D0000318D00AF61FE5
:1002F8007E29D003831203135008D20051088400CA
:100308008317521C831300080A128A1184220A12C6
:100318008A110130F6070318F70A0030F707760844
:10032800740783120313D1007508D0000318D00A8C
:10033800F61F9F29D003831203135008D2005108D7
:1003480084008317521C83130008031DAC29AD29B0
:10035800742908000C308312031399008230831229
:100368000313D400DD30D300D30BB829D40BB8293C
:100378004730F4000030F5000A128A1171210A1280
:100388008A11FA01013083120313A0000030A10082
:10039800063083120313D5001330D400AD30D300D8
:1003A800D30BD429D40BD429D50BD4290C308312E0
:1003B800031399000800013400345B3432345D348F
:1003C8002034433461346D346234693461347234B6
:1003D800203450344F34523454344134413400348E
:1003E8005B3433345D342034433461346D346234E7
:1003F800693461347234203450344F3452345434B4
:1004080042340034613462346334643465346634AD
:10041800673468340034831603178801890183160A
:100428000313850186018312031385018601870161
:1004380088018901831603130F178F160F160F14DF
:1004480018121811831603178715333083160313F0
:1004580099009A0183120313981718131816831614
:10046800031398160B178C16831203138C128B1711
:1004780008000A128A110F220A128A110630831202
:100488000313DA001330D900AD30D800D80B4A2A4C
:10049800D90B4A2ADA0B4A2A0A128A1140200A1270
:1004A8008A11422A0A128A110C28831203138C1EFD
:1004B8005E2A5F2A6A2A1A08F0007008FA005B03AD
:1004C800031D672A682A6A2AF901F80172088A0056
:1004D800710E8300FE0E7E0E09007E088A007F08DA
:1004E80082000A128A1171220A128A118000840A73
:1004F80004087D0603190034FF0A0319FE0A752A49
:10050800F300831203130C1E8A2A8B2A852A730888
:100518009900080002308A000408840A820700341F
:0205280061343C
:04400E00D530FF3F6B
:00000001FF
