:060000000A128A11152905
:100200008A010A140F3982073F3406345B344F34B5
:1002100066346D347D3407347F34673477347C340E
:1002200039345E3479347134080003178316880139
:10023000890103138316FF308500F03086008701A3
:1002400088010313831286018701880133213A2133
:10025000221405184B21851852210B1D2D294321ED
:10026000860A59212829031383160F138F160F129C
:100270000F140800031383168112811101158114D4
:10028000011443210800221808100313831286303A
:1002900081000B11080005184B29A00A2008002135
:1002A0008700080085185229A00320080021870034
:1002B000080020080602031908140319860103190F
:0802C000A2010319432108000B
:04400E00C430FF3F7C
:00000001FF
